{
  "_format": "hh-sol-artifact-1",
  "contractName": "MediumBlog",
  "sourceName": "contracts/MediumBlog.sol",
  "abi": [
    {
      "inputs": [
        {
          "internalType": "uint256",
          "name": "_fee",
          "type": "uint256"
        }
      ],
      "stateMutability": "nonpayable",
      "type": "constructor"
    },
    {
      "anonymous": false,
      "inputs": [
        {
          "indexed": false,
          "internalType": "uint256",
          "name": "id",
          "type": "uint256"
        },
        {
          "indexed": false,
          "internalType": "string",
          "name": "username",
          "type": "string"
        }
      ],
      "name": "AuthorAdded",
      "type": "event"
    },
    {
      "anonymous": false,
      "inputs": [
        {
          "indexed": false,
          "internalType": "uint256",
          "name": "id",
          "type": "uint256"
        },
        {
          "indexed": false,
          "internalType": "address",
          "name": "creator",
          "type": "address"
        },
        {
          "indexed": false,
          "internalType": "string",
          "name": "title",
          "type": "string"
        },
        {
          "indexed": false,
          "internalType": "string",
          "name": "postOverview",
          "type": "string"
        },
        {
          "indexed": false,
          "internalType": "string",
          "name": "coverImageURI",
          "type": "string"
        },
        {
          "indexed": false,
          "internalType": "uint256",
          "name": "readTime",
          "type": "uint256"
        },
        {
          "indexed": false,
          "internalType": "string",
          "name": "contentURI",
          "type": "string"
        },
        {
          "indexed": false,
          "internalType": "uint256",
          "name": "createdAt",
          "type": "uint256"
        }
      ],
      "name": "PostCreated",
      "type": "event"
    },
    {
      "anonymous": false,
      "inputs": [
        {
          "indexed": false,
          "internalType": "uint256",
          "name": "id",
          "type": "uint256"
        },
        {
          "indexed": false,
          "internalType": "address",
          "name": "creator",
          "type": "address"
        },
        {
          "indexed": false,
          "internalType": "string",
          "name": "title",
          "type": "string"
        },
        {
          "indexed": false,
          "internalType": "string",
          "name": "postOverview",
          "type": "string"
        },
        {
          "indexed": false,
          "internalType": "string",
          "name": "coverImageURI",
          "type": "string"
        },
        {
          "indexed": false,
          "internalType": "string",
          "name": "contentURI",
          "type": "string"
        },
        {
          "indexed": false,
          "internalType": "uint256",
          "name": "createdAt",
          "type": "uint256"
        }
      ],
      "name": "PostUpdated",
      "type": "event"
    },
    {
      "inputs": [],
      "name": "admin",
      "outputs": [
        {
          "internalType": "address",
          "name": "",
          "type": "address"
        }
      ],
      "stateMutability": "view",
      "type": "function"
    },
    {
      "inputs": [],
      "name": "authorsCount",
      "outputs": [
        {
          "internalType": "uint256",
          "name": "",
          "type": "uint256"
        }
      ],
      "stateMutability": "view",
      "type": "function"
    },
    {
      "inputs": [
        {
          "internalType": "uint256",
          "name": "_newFee",
          "type": "uint256"
        }
      ],
      "name": "changePostingFee",
      "outputs": [],
      "stateMutability": "nonpayable",
      "type": "function"
    },
    {
      "inputs": [
        {
          "internalType": "string",
          "name": "_title",
          "type": "string"
        },
        {
          "internalType": "string",
          "name": "_postOverview",
          "type": "string"
        },
        {
          "internalType": "string",
          "name": "_coverImageURI",
          "type": "string"
        },
        {
          "internalType": "uint256",
          "name": "_readTime",
          "type": "uint256"
        },
        {
          "internalType": "string",
          "name": "_contentURI",
          "type": "string"
        }
      ],
      "name": "createPost",
      "outputs": [],
      "stateMutability": "payable",
      "type": "function"
    },
    {
      "inputs": [
        {
          "internalType": "string",
          "name": "_newUsername",
          "type": "string"
        },
        {
          "internalType": "string",
          "name": "_newAuthorDesc",
          "type": "string"
        },
        {
          "internalType": "string",
          "name": "_newProfileImageUrl",
          "type": "string"
        }
      ],
      "name": "editProfile",
      "outputs": [],
      "stateMutability": "nonpayable",
      "type": "function"
    },
    {
      "inputs": [],
      "name": "getAllPosts",
      "outputs": [
        {
          "components": [
            {
              "internalType": "uint256",
              "name": "id",
              "type": "uint256"
            },
            {
              "internalType": "address",
              "name": "creator",
              "type": "address"
            },
            {
              "internalType": "string",
              "name": "title",
              "type": "string"
            },
            {
              "internalType": "string",
              "name": "postOverview",
              "type": "string"
            },
            {
              "internalType": "string",
              "name": "coverImageURI",
              "type": "string"
            },
            {
              "internalType": "uint256",
              "name": "readTime",
              "type": "uint256"
            },
            {
              "internalType": "string",
              "name": "contentURI",
              "type": "string"
            },
            {
              "internalType": "uint256",
              "name": "createdAt",
              "type": "uint256"
            }
          ],
          "internalType": "struct MediumBlog.Post[]",
          "name": "",
          "type": "tuple[]"
        }
      ],
      "stateMutability": "view",
      "type": "function"
    },
    {
      "inputs": [
        {
          "internalType": "address",
          "name": "_author",
          "type": "address"
        }
      ],
      "name": "getAuthorDetails",
      "outputs": [
        {
          "components": [
            {
              "internalType": "uint256",
              "name": "id",
              "type": "uint256"
            },
            {
              "internalType": "string",
              "name": "username",
              "type": "string"
            },
            {
              "internalType": "string",
              "name": "authorDesciption",
              "type": "string"
            },
            {
              "internalType": "string",
              "name": "profileImageUrl",
              "type": "string"
            },
            {
              "internalType": "bool",
              "name": "isActive",
              "type": "bool"
            }
          ],
          "internalType": "struct MediumBlog.Author",
          "name": "",
          "type": "tuple"
        }
      ],
      "stateMutability": "view",
      "type": "function"
    },
    {
      "inputs": [],
      "name": "postingFee",
      "outputs": [
        {
          "internalType": "uint256",
          "name": "",
          "type": "uint256"
        }
      ],
      "stateMutability": "view",
      "type": "function"
    },
    {
      "inputs": [
        {
          "internalType": "uint256",
          "name": "",
          "type": "uint256"
        }
      ],
      "name": "posts",
      "outputs": [
        {
          "internalType": "uint256",
          "name": "id",
          "type": "uint256"
        },
        {
          "internalType": "address",
          "name": "creator",
          "type": "address"
        },
        {
          "internalType": "string",
          "name": "title",
          "type": "string"
        },
        {
          "internalType": "string",
          "name": "postOverview",
          "type": "string"
        },
        {
          "internalType": "string",
          "name": "coverImageURI",
          "type": "string"
        },
        {
          "internalType": "uint256",
          "name": "readTime",
          "type": "uint256"
        },
        {
          "internalType": "string",
          "name": "contentURI",
          "type": "string"
        },
        {
          "internalType": "uint256",
          "name": "createdAt",
          "type": "uint256"
        }
      ],
      "stateMutability": "view",
      "type": "function"
    },
    {
      "inputs": [
        {
          "internalType": "string",
          "name": "_username",
          "type": "string"
        },
        {
          "internalType": "string",
          "name": "_authorDesc",
          "type": "string"
        },
        {
          "internalType": "string",
          "name": "_profilePictureUrl",
          "type": "string"
        }
      ],
      "name": "subscribe",
      "outputs": [],
      "stateMutability": "nonpayable",
      "type": "function"
    },
    {
      "inputs": [
        {
          "internalType": "uint256",
          "name": "_postId",
          "type": "uint256"
        }
      ],
      "name": "tipPostCreator",
      "outputs": [],
      "stateMutability": "payable",
      "type": "function"
    },
    {
      "inputs": [
        {
          "internalType": "uint256",
          "name": "_postId",
          "type": "uint256"
        },
        {
          "internalType": "string",
          "name": "_newTitle",
          "type": "string"
        },
        {
          "internalType": "string",
          "name": "_newPostOverview",
          "type": "string"
        },
        {
          "internalType": "uint256",
          "name": "_newReadTime",
          "type": "uint256"
        },
        {
          "internalType": "string",
          "name": "_newCoverImageURI",
          "type": "string"
        },
        {
          "internalType": "string",
          "name": "_newContentURI",
          "type": "string"
        }
      ],
      "name": "updatePost",
      "outputs": [],
      "stateMutability": "nonpayable",
      "type": "function"
    },
    {
      "inputs": [],
      "name": "withdrawBalance",
      "outputs": [],
      "stateMutability": "nonpayable",
      "type": "function"
    }
  ],
  "bytecode": "0x60806040523480156200001157600080fd5b5060405162002c3938038062002c3983398181016040528101906200003791906200009c565b336000806101000a81548173ffffffffffffffffffffffffffffffffffffffff021916908373ffffffffffffffffffffffffffffffffffffffff1602179055508060018190555050620000ec565b6000815190506200009681620000d2565b92915050565b600060208284031215620000af57600080fd5b6000620000bf8482850162000085565b91505092915050565b6000819050919050565b620000dd81620000c8565b8114620000e957600080fd5b50565b612b3d80620000fc6000396000f3fe6080604052600436106100c15760003560e01c8063305611001161007f5780636ba6a358116100595780636ba6a358146102405780637ed318f814610269578063f260d41514610292578063f851a440146102bb576100c1565b806330561100146101d35780635d7bec09146101fe5780635fd8c71014610229576100c1565b8062e90184146100c657806309a71be3146101035780630b1e7f831461011f5780631cfd5c9d146101635780631ebd72ed1461017f57806325ca819f146101a8575b600080fd5b3480156100d257600080fd5b506100ed60048036038101906100e89190611eba565b6102e6565b6040516100fa91906125c1565b60405180910390f35b61011d60048036038101906101189190611f7a565b61051a565b005b34801561012b57600080fd5b5061014660048036038101906101419190612051565b61079a565b60405161015a989796959493929190612689565b60405180910390f35b61017d60048036038101906101789190612051565b610a32565b005b34801561018b57600080fd5b506101a660048036038101906101a19190611ee3565b610dd2565b005b3480156101b457600080fd5b506101bd61116f565b6040516101ca91906125e3565b60405180910390f35b3480156101df57600080fd5b506101e8611175565b6040516101f591906124df565b60405180910390f35b34801561020a57600080fd5b50610213611491565b60405161022091906125e3565b60405180910390f35b34801561023557600080fd5b5061023e611497565b005b34801561024c57600080fd5b5061026760048036038101906102629190612051565b61158e565b005b34801561027557600080fd5b50610290600480360381019061028b919061207a565b611626565b005b34801561029e57600080fd5b506102b960048036038101906102b49190611ee3565b611b55565b005b3480156102c757600080fd5b506102d0611d30565b6040516102dd91906124c4565b60405180910390f35b6102ee611d54565b600460008373ffffffffffffffffffffffffffffffffffffffff1673ffffffffffffffffffffffffffffffffffffffff1681526020019081526020016000206040518060a00160405290816000820154815260200160018201805461035290612899565b80601f016020809104026020016040519081016040528092919081815260200182805461037e90612899565b80156103cb5780601f106103a0576101008083540402835291602001916103cb565b820191906000526020600020905b8154815290600101906020018083116103ae57829003601f168201915b505050505081526020016002820180546103e490612899565b80601f016020809104026020016040519081016040528092919081815260200182805461041090612899565b801561045d5780601f106104325761010080835404028352916020019161045d565b820191906000526020600020905b81548152906001019060200180831161044057829003601f168201915b5050505050815260200160038201805461047690612899565b80601f01602080910402602001604051908101604052809291908181526020018280546104a290612899565b80156104ef5780601f106104c4576101008083540402835291602001916104ef565b820191906000526020600020905b8154815290600101906020018083116104d257829003601f168201915b505050505081526020016004820160009054906101000a900460ff1615151515815250509050919050565b600460003373ffffffffffffffffffffffffffffffffffffffff1673ffffffffffffffffffffffffffffffffffffffff16815260200190815260200160002060040160009054906101000a900460ff166105a9576040517f08c379a00000000000000000000000000000000000000000000000000000000081526004016105a090612561565b60405180910390fd5b60015434146105ed576040517f08c379a00000000000000000000000000000000000000000000000000000000081526004016105e490612501565b60405180910390fd5b6000600380549050905060036040518061010001604052808381526020013373ffffffffffffffffffffffffffffffffffffffff1681526020018881526020018781526020018681526020018581526020018481526020014281525090806001815401808255809150506001900390600052602060002090600802016000909190919091506000820151816000015560208201518160010160006101000a81548173ffffffffffffffffffffffffffffffffffffffff021916908373ffffffffffffffffffffffffffffffffffffffff16021790555060408201518160020190805190602001906106df929190611d85565b5060608201518160030190805190602001906106fc929190611d85565b506080820151816004019080519060200190610719929190611d85565b5060a0820151816005015560c0820151816006019080519060200190610740929190611d85565b5060e0820151816007015550507fae391be4a9242c66d885cb4c515f5bfd00c521f275fa1937b67c54492f0e6199813388888888884260405161078a989796959493929190612689565b60405180910390a1505050505050565b600381815481106107aa57600080fd5b90600052602060002090600802016000915090508060000154908060010160009054906101000a900473ffffffffffffffffffffffffffffffffffffffff16908060020180546107f990612899565b80601f016020809104026020016040519081016040528092919081815260200182805461082590612899565b80156108725780601f1061084757610100808354040283529160200191610872565b820191906000526020600020905b81548152906001019060200180831161085557829003601f168201915b50505050509080600301805461088790612899565b80601f01602080910402602001604051908101604052809291908181526020018280546108b390612899565b80156109005780601f106108d557610100808354040283529160200191610900565b820191906000526020600020905b8154815290600101906020018083116108e357829003601f168201915b50505050509080600401805461091590612899565b80601f016020809104026020016040519081016040528092919081815260200182805461094190612899565b801561098e5780601f106109635761010080835404028352916020019161098e565b820191906000526020600020905b81548152906001019060200180831161097157829003601f168201915b5050505050908060050154908060060180546109a990612899565b80601f01602080910402602001604051908101604052809291908181526020018280546109d590612899565b8015610a225780601f106109f757610100808354040283529160200191610a22565b820191906000526020600020905b815481529060010190602001808311610a0557829003601f168201915b5050505050908060070154905088565b600060038281548110610a6e577f4e487b7100000000000000000000000000000000000000000000000000000000600052603260045260246000fd5b906000526020600020906008020160405180610100016040529081600082015481526020016001820160009054906101000a900473ffffffffffffffffffffffffffffffffffffffff1673ffffffffffffffffffffffffffffffffffffffff1673ffffffffffffffffffffffffffffffffffffffff168152602001600282018054610af890612899565b80601f0160208091040260200160405190810160405280929190818152602001828054610b2490612899565b8015610b715780601f10610b4657610100808354040283529160200191610b71565b820191906000526020600020905b815481529060010190602001808311610b5457829003601f168201915b50505050508152602001600382018054610b8a90612899565b80601f0160208091040260200160405190810160405280929190818152602001828054610bb690612899565b8015610c035780601f10610bd857610100808354040283529160200191610c03565b820191906000526020600020905b815481529060010190602001808311610be657829003601f168201915b50505050508152602001600482018054610c1c90612899565b80601f0160208091040260200160405190810160405280929190818152602001828054610c4890612899565b8015610c955780601f10610c6a57610100808354040283529160200191610c95565b820191906000526020600020905b815481529060010190602001808311610c7857829003601f168201915b5050505050815260200160058201548152602001600682018054610cb890612899565b80601f0160208091040260200160405190810160405280929190818152602001828054610ce490612899565b8015610d315780601f10610d0657610100808354040283529160200191610d31565b820191906000526020600020905b815481529060010190602001808311610d1457829003601f168201915b505050505081526020016007820154815250509050806020015173ffffffffffffffffffffffffffffffffffffffff163373ffffffffffffffffffffffffffffffffffffffff161415610d8357600080fd5b806020015173ffffffffffffffffffffffffffffffffffffffff166108fc349081150290604051600060405180830381858888f19350505050158015610dcd573d6000803e3d6000fd5b505050565b600460003373ffffffffffffffffffffffffffffffffffffffff1673ffffffffffffffffffffffffffffffffffffffff16815260200190815260200160002060040160009054906101000a900460ff16610e61576040517f08c379a0000000000000000000000000000000000000000000000000000000008152600401610e5890612581565b60405180910390fd5b6000600460003373ffffffffffffffffffffffffffffffffffffffff1673ffffffffffffffffffffffffffffffffffffffff1681526020019081526020016000206040518060a001604052908160008201548152602001600182018054610ec790612899565b80601f0160208091040260200160405190810160405280929190818152602001828054610ef390612899565b8015610f405780601f10610f1557610100808354040283529160200191610f40565b820191906000526020600020905b815481529060010190602001808311610f2357829003601f168201915b50505050508152602001600282018054610f5990612899565b80601f0160208091040260200160405190810160405280929190818152602001828054610f8590612899565b8015610fd25780601f10610fa757610100808354040283529160200191610fd2565b820191906000526020600020905b815481529060010190602001808311610fb557829003601f168201915b50505050508152602001600382018054610feb90612899565b80601f016020809104026020016040519081016040528092919081815260200182805461101790612899565b80156110645780601f1061103957610100808354040283529160200191611064565b820191906000526020600020905b81548152906001019060200180831161104757829003601f168201915b505050505081526020016004820160009054906101000a900460ff161515151581525050905083816020018190525082816040018190525081816060018190525080600460003373ffffffffffffffffffffffffffffffffffffffff1673ffffffffffffffffffffffffffffffffffffffff16815260200190815260200160002060008201518160000155602082015181600101908051906020019061110b929190611d85565b506040820151816002019080519060200190611128929190611d85565b506060820151816003019080519060200190611145929190611d85565b5060808201518160040160006101000a81548160ff02191690831515021790555090505050505050565b60025481565b60606003805480602002602001604051908101604052809291908181526020016000905b82821015611488578382906000526020600020906008020160405180610100016040529081600082015481526020016001820160009054906101000a900473ffffffffffffffffffffffffffffffffffffffff1673ffffffffffffffffffffffffffffffffffffffff1673ffffffffffffffffffffffffffffffffffffffff16815260200160028201805461122d90612899565b80601f016020809104026020016040519081016040528092919081815260200182805461125990612899565b80156112a65780601f1061127b576101008083540402835291602001916112a6565b820191906000526020600020905b81548152906001019060200180831161128957829003601f168201915b505050505081526020016003820180546112bf90612899565b80601f01602080910402602001604051908101604052809291908181526020018280546112eb90612899565b80156113385780601f1061130d57610100808354040283529160200191611338565b820191906000526020600020905b81548152906001019060200180831161131b57829003601f168201915b5050505050815260200160048201805461135190612899565b80601f016020809104026020016040519081016040528092919081815260200182805461137d90612899565b80156113ca5780601f1061139f576101008083540402835291602001916113ca565b820191906000526020600020905b8154815290600101906020018083116113ad57829003601f168201915b50505050508152602001600582015481526020016006820180546113ed90612899565b80601f016020809104026020016040519081016040528092919081815260200182805461141990612899565b80156114665780601f1061143b57610100808354040283529160200191611466565b820191906000526020600020905b81548152906001019060200180831161144957829003601f168201915b5050505050815260200160078201548152505081526020019060010190611199565b50505050905090565b60015481565b60008054906101000a900473ffffffffffffffffffffffffffffffffffffffff1673ffffffffffffffffffffffffffffffffffffffff163373ffffffffffffffffffffffffffffffffffffffff1614611525576040517f08c379a000000000000000000000000000000000000000000000000000000000815260040161151c90612541565b60405180910390fd5b60008054906101000a900473ffffffffffffffffffffffffffffffffffffffff1673ffffffffffffffffffffffffffffffffffffffff166108fc479081150290604051600060405180830381858888f1935050505015801561158b573d6000803e3d6000fd5b50565b60008054906101000a900473ffffffffffffffffffffffffffffffffffffffff1673ffffffffffffffffffffffffffffffffffffffff163373ffffffffffffffffffffffffffffffffffffffff161461161c576040517f08c379a000000000000000000000000000000000000000000000000000000000815260040161161390612541565b60405180910390fd5b8060018190555050565b600060038781548110611662577f4e487b7100000000000000000000000000000000000000000000000000000000600052603260045260246000fd5b906000526020600020906008020160405180610100016040529081600082015481526020016001820160009054906101000a900473ffffffffffffffffffffffffffffffffffffffff1673ffffffffffffffffffffffffffffffffffffffff1673ffffffffffffffffffffffffffffffffffffffff1681526020016002820180546116ec90612899565b80601f016020809104026020016040519081016040528092919081815260200182805461171890612899565b80156117655780601f1061173a57610100808354040283529160200191611765565b820191906000526020600020905b81548152906001019060200180831161174857829003601f168201915b5050505050815260200160038201805461177e90612899565b80601f01602080910402602001604051908101604052809291908181526020018280546117aa90612899565b80156117f75780601f106117cc576101008083540402835291602001916117f7565b820191906000526020600020905b8154815290600101906020018083116117da57829003601f168201915b5050505050815260200160048201805461181090612899565b80601f016020809104026020016040519081016040528092919081815260200182805461183c90612899565b80156118895780601f1061185e57610100808354040283529160200191611889565b820191906000526020600020905b81548152906001019060200180831161186c57829003601f168201915b50505050508152602001600582015481526020016006820180546118ac90612899565b80601f01602080910402602001604051908101604052809291908181526020018280546118d890612899565b80156119255780601f106118fa57610100808354040283529160200191611925565b820191906000526020600020905b81548152906001019060200180831161190857829003601f168201915b505050505081526020016007820154815250509050806020015173ffffffffffffffffffffffffffffffffffffffff163373ffffffffffffffffffffffffffffffffffffffff16146119ac576040517f08c379a00000000000000000000000000000000000000000000000000000000081526004016119a390612521565b60405180910390fd5b858160400181905250848160600181905250838160a0018181525050828160800181905250818160c00181905250428160e00181815250508060038881548110611a1f577f4e487b7100000000000000000000000000000000000000000000000000000000600052603260045260246000fd5b90600052602060002090600802016000820151816000015560208201518160010160006101000a81548173ffffffffffffffffffffffffffffffffffffffff021916908373ffffffffffffffffffffffffffffffffffffffff1602179055506040820151816002019080519060200190611a9a929190611d85565b506060820151816003019080519060200190611ab7929190611d85565b506080820151816004019080519060200190611ad4929190611d85565b5060a0820151816005015560c0820151816006019080519060200190611afb929190611d85565b5060e082015181600701559050507f6ec36d53386fd706ec8b000c79faa8d46af347a4b7a92ebcb1c68e7f03c78ff887338888878742604051611b4497969594939291906125fe565b60405180910390a150505050505050565b600460003373ffffffffffffffffffffffffffffffffffffffff1673ffffffffffffffffffffffffffffffffffffffff16815260200190815260200160002060040160009054906101000a900460ff1615611be5576040517f08c379a0000000000000000000000000000000000000000000000000000000008152600401611bdc906125a1565b60405180910390fd5b600060025490506040518060a0016040528082815260200185815260200184815260200183815260200160011515815250600460003373ffffffffffffffffffffffffffffffffffffffff1673ffffffffffffffffffffffffffffffffffffffff168152602001908152602001600020600082015181600001556020820151816001019080519060200190611c7b929190611d85565b506040820151816002019080519060200190611c98929190611d85565b506060820151816003019080519060200190611cb5929190611d85565b5060808201518160040160006101000a81548160ff02191690831515021790555090505060026000815480929190611cec906128fc565b91905055507fcc63c6492c6f72340ad3db6f1f48ccd0a3f9ffeda3cc65bc99b9b81a8686f8c28185604051611d22929190612723565b60405180910390a150505050565b60008054906101000a900473ffffffffffffffffffffffffffffffffffffffff1681565b6040518060a00160405280600081526020016060815260200160608152602001606081526020016000151581525090565b828054611d9190612899565b90600052602060002090601f016020900481019282611db35760008555611dfa565b82601f10611dcc57805160ff1916838001178555611dfa565b82800160010185558215611dfa579182015b82811115611df9578251825591602001919060010190611dde565b5b509050611e079190611e0b565b5090565b5b80821115611e24576000816000905550600101611e0c565b5090565b6000611e3b611e3684612778565b612753565b905082815260208101848484011115611e5357600080fd5b611e5e848285612857565b509392505050565b600081359050611e7581612ad9565b92915050565b600082601f830112611e8c57600080fd5b8135611e9c848260208601611e28565b91505092915050565b600081359050611eb481612af0565b92915050565b600060208284031215611ecc57600080fd5b6000611eda84828501611e66565b91505092915050565b600080600060608486031215611ef857600080fd5b600084013567ffffffffffffffff811115611f1257600080fd5b611f1e86828701611e7b565b935050602084013567ffffffffffffffff811115611f3b57600080fd5b611f4786828701611e7b565b925050604084013567ffffffffffffffff811115611f6457600080fd5b611f7086828701611e7b565b9150509250925092565b600080600080600060a08688031215611f9257600080fd5b600086013567ffffffffffffffff811115611fac57600080fd5b611fb888828901611e7b565b955050602086013567ffffffffffffffff811115611fd557600080fd5b611fe188828901611e7b565b945050604086013567ffffffffffffffff811115611ffe57600080fd5b61200a88828901611e7b565b935050606061201b88828901611ea5565b925050608086013567ffffffffffffffff81111561203857600080fd5b61204488828901611e7b565b9150509295509295909350565b60006020828403121561206357600080fd5b600061207184828501611ea5565b91505092915050565b60008060008060008060c0878903121561209357600080fd5b60006120a189828a01611ea5565b965050602087013567ffffffffffffffff8111156120be57600080fd5b6120ca89828a01611e7b565b955050604087013567ffffffffffffffff8111156120e757600080fd5b6120f389828a01611e7b565b945050606061210489828a01611ea5565b935050608087013567ffffffffffffffff81111561212157600080fd5b61212d89828a01611e7b565b92505060a087013567ffffffffffffffff81111561214a57600080fd5b61215689828a01611e7b565b9150509295509295509295565b600061216f83836123e1565b905092915050565b6121808161280f565b82525050565b61218f8161280f565b82525050565b60006121a0826127b9565b6121aa81856127dc565b9350836020820285016121bc856127a9565b8060005b858110156121f857848403895281516121d98582612163565b94506121e4836127cf565b925060208a019950506001810190506121c0565b50829750879550505050505092915050565b61221381612821565b82525050565b6000612224826127c4565b61222e81856127ed565b935061223e818560208601612866565b612247816129d2565b840191505092915050565b600061225d826127c4565b61226781856127fe565b9350612277818560208601612866565b612280816129d2565b840191505092915050565b6000612298601a836127fe565b91506122a3826129e3565b602082019050919050565b60006122bb6011836127fe565b91506122c682612a0c565b602082019050919050565b60006122de600f836127fe565b91506122e982612a35565b602082019050919050565b60006123016014836127fe565b915061230c82612a5e565b602082019050919050565b6000612324600e836127fe565b915061232f82612a87565b602082019050919050565b60006123476012836127fe565b915061235282612ab0565b602082019050919050565b600060a08301600083015161237560008601826124a6565b506020830151848203602086015261238d8282612219565b915050604083015184820360408601526123a78282612219565b915050606083015184820360608601526123c18282612219565b91505060808301516123d6608086018261220a565b508091505092915050565b6000610100830160008301516123fa60008601826124a6565b50602083015161240d6020860182612177565b50604083015184820360408601526124258282612219565b9150506060830151848203606086015261243f8282612219565b915050608083015184820360808601526124598282612219565b91505060a083015161246e60a08601826124a6565b5060c083015184820360c08601526124868282612219565b91505060e083015161249b60e08601826124a6565b508091505092915050565b6124af8161284d565b82525050565b6124be8161284d565b82525050565b60006020820190506124d96000830184612186565b92915050565b600060208201905081810360008301526124f98184612195565b905092915050565b6000602082019050818103600083015261251a8161228b565b9050919050565b6000602082019050818103600083015261253a816122ae565b9050919050565b6000602082019050818103600083015261255a816122d1565b9050919050565b6000602082019050818103600083015261257a816122f4565b9050919050565b6000602082019050818103600083015261259a81612317565b9050919050565b600060208201905081810360008301526125ba8161233a565b9050919050565b600060208201905081810360008301526125db818461235d565b905092915050565b60006020820190506125f860008301846124b5565b92915050565b600060e082019050612613600083018a6124b5565b6126206020830189612186565b81810360408301526126328188612252565b905081810360608301526126468187612252565b9050818103608083015261265a8186612252565b905081810360a083015261266e8185612252565b905061267d60c08301846124b5565b98975050505050505050565b60006101008201905061269f600083018b6124b5565b6126ac602083018a612186565b81810360408301526126be8189612252565b905081810360608301526126d28188612252565b905081810360808301526126e68187612252565b90506126f560a08301866124b5565b81810360c08301526127078185612252565b905061271660e08301846124b5565b9998505050505050505050565b600060408201905061273860008301856124b5565b818103602083015261274a8184612252565b90509392505050565b600061275d61276e565b905061276982826128cb565b919050565b6000604051905090565b600067ffffffffffffffff821115612793576127926129a3565b5b61279c826129d2565b9050602081019050919050565b6000819050602082019050919050565b600081519050919050565b600081519050919050565b6000602082019050919050565b600082825260208201905092915050565b600082825260208201905092915050565b600082825260208201905092915050565b600061281a8261282d565b9050919050565b60008115159050919050565b600073ffffffffffffffffffffffffffffffffffffffff82169050919050565b6000819050919050565b82818337600083830152505050565b60005b83811015612884578082015181840152602081019050612869565b83811115612893576000848401525b50505050565b600060028204905060018216806128b157607f821691505b602082108114156128c5576128c4612974565b5b50919050565b6128d4826129d2565b810181811067ffffffffffffffff821117156128f3576128f26129a3565b5b80604052505050565b60006129078261284d565b91507fffffffffffffffffffffffffffffffffffffffffffffffffffffffffffffffff82141561293a57612939612945565b5b600182019050919050565b7f4e487b7100000000000000000000000000000000000000000000000000000000600052601160045260246000fd5b7f4e487b7100000000000000000000000000000000000000000000000000000000600052602260045260246000fd5b7f4e487b7100000000000000000000000000000000000000000000000000000000600052604160045260246000fd5b6000601f19601f8301169050919050565b7f6d7573742070617920657861637420706f7374696e6720666565000000000000600082015250565b7f6f6e6c7920706f73742063726561746f72000000000000000000000000000000600082015250565b7f6f6e6c792061646d696e2063616c6c0000000000000000000000000000000000600082015250565b7f4d75737420737562736372696265206669727374000000000000000000000000600082015250565b7f4e6f742073756273637269626564000000000000000000000000000000000000600082015250565b7f416c726561647920737562736372696265640000000000000000000000000000600082015250565b612ae28161280f565b8114612aed57600080fd5b50565b612af98161284d565b8114612b0457600080fd5b5056fea2646970667358221220f29abd25a4d768a7330513a7371f10b9237af6ced6509315671e2ce4cc57e20f64736f6c63430008040033",
  "linkReferences": {},
  "deployedLinkReferences": {}
}