{
  "_format": "hh-sol-artifact-1",
  "contractName": "MediumBlog",
  "sourceName": "contracts/MediumBlog.sol",
  "abi": [
    {
      "inputs": [
        {
          "internalType": "uint256",
          "name": "_fee",
          "type": "uint256"
        }
      ],
      "stateMutability": "nonpayable",
      "type": "constructor"
    },
    {
      "anonymous": false,
      "inputs": [
        {
          "indexed": false,
          "internalType": "uint256",
          "name": "id",
          "type": "uint256"
        },
        {
          "indexed": false,
          "internalType": "string",
          "name": "username",
          "type": "string"
        }
      ],
      "name": "AuthorAdded",
      "type": "event"
    },
    {
      "anonymous": false,
      "inputs": [
        {
          "indexed": false,
          "internalType": "uint256",
          "name": "id",
          "type": "uint256"
        },
        {
          "indexed": false,
          "internalType": "address",
          "name": "creator",
          "type": "address"
        },
        {
          "indexed": false,
          "internalType": "string",
          "name": "title",
          "type": "string"
        },
        {
          "indexed": false,
          "internalType": "string",
          "name": "postOverview",
          "type": "string"
        },
        {
          "indexed": false,
          "internalType": "string",
          "name": "coverImageURI",
          "type": "string"
        },
        {
          "indexed": false,
          "internalType": "uint256",
          "name": "readTime",
          "type": "uint256"
        },
        {
          "indexed": false,
          "internalType": "string",
          "name": "contentURI",
          "type": "string"
        },
        {
          "indexed": false,
          "internalType": "uint256",
          "name": "createdAt",
          "type": "uint256"
        }
      ],
      "name": "PostCreated",
      "type": "event"
    },
    {
      "anonymous": false,
      "inputs": [
        {
          "indexed": false,
          "internalType": "uint256",
          "name": "id",
          "type": "uint256"
        },
        {
          "indexed": false,
          "internalType": "address",
          "name": "creator",
          "type": "address"
        },
        {
          "indexed": false,
          "internalType": "string",
          "name": "title",
          "type": "string"
        },
        {
          "indexed": false,
          "internalType": "string",
          "name": "postOverview",
          "type": "string"
        },
        {
          "indexed": false,
          "internalType": "string",
          "name": "coverImageURI",
          "type": "string"
        },
        {
          "indexed": false,
          "internalType": "string",
          "name": "contentURI",
          "type": "string"
        },
        {
          "indexed": false,
          "internalType": "uint256",
          "name": "createdAt",
          "type": "uint256"
        }
      ],
      "name": "PostUpdated",
      "type": "event"
    },
    {
      "inputs": [],
      "name": "admin",
      "outputs": [
        {
          "internalType": "address",
          "name": "",
          "type": "address"
        }
      ],
      "stateMutability": "view",
      "type": "function"
    },
    {
      "inputs": [],
      "name": "authorsCount",
      "outputs": [
        {
          "internalType": "uint256",
          "name": "",
          "type": "uint256"
        }
      ],
      "stateMutability": "view",
      "type": "function"
    },
    {
      "inputs": [
        {
          "internalType": "uint256",
          "name": "_newFee",
          "type": "uint256"
        }
      ],
      "name": "changePostingFee",
      "outputs": [],
      "stateMutability": "nonpayable",
      "type": "function"
    },
    {
      "inputs": [
        {
          "internalType": "string",
          "name": "_title",
          "type": "string"
        },
        {
          "internalType": "string",
          "name": "_postOverview",
          "type": "string"
        },
        {
          "internalType": "string",
          "name": "_coverImageURI",
          "type": "string"
        },
        {
          "internalType": "uint256",
          "name": "_readTime",
          "type": "uint256"
        },
        {
          "internalType": "string",
          "name": "_contentURI",
          "type": "string"
        }
      ],
      "name": "createPost",
      "outputs": [],
      "stateMutability": "payable",
      "type": "function"
    },
    {
      "inputs": [
        {
          "internalType": "string",
          "name": "_newUsername",
          "type": "string"
        },
        {
          "internalType": "string",
          "name": "_newAuthorDesc",
          "type": "string"
        },
        {
          "internalType": "string",
          "name": "_newProfileImageUrl",
          "type": "string"
        }
      ],
      "name": "editProfile",
      "outputs": [],
      "stateMutability": "nonpayable",
      "type": "function"
    },
    {
      "inputs": [],
      "name": "getAllPosts",
      "outputs": [
        {
          "components": [
            {
              "internalType": "uint256",
              "name": "id",
              "type": "uint256"
            },
            {
              "internalType": "address",
              "name": "creator",
              "type": "address"
            },
            {
              "internalType": "string",
              "name": "title",
              "type": "string"
            },
            {
              "internalType": "string",
              "name": "postOverview",
              "type": "string"
            },
            {
              "internalType": "string",
              "name": "coverImageURI",
              "type": "string"
            },
            {
              "internalType": "uint256",
              "name": "readTime",
              "type": "uint256"
            },
            {
              "internalType": "string",
              "name": "contentURI",
              "type": "string"
            },
            {
              "internalType": "uint256",
              "name": "createdAt",
              "type": "uint256"
            }
          ],
          "internalType": "struct MediumBlog.Post[]",
          "name": "",
          "type": "tuple[]"
        }
      ],
      "stateMutability": "view",
      "type": "function"
    },
    {
      "inputs": [
        {
          "internalType": "address",
          "name": "_author",
          "type": "address"
        }
      ],
      "name": "getAuthorDetails",
      "outputs": [
        {
          "components": [
            {
              "internalType": "uint256",
              "name": "id",
              "type": "uint256"
            },
            {
              "internalType": "string",
              "name": "username",
              "type": "string"
            },
            {
              "internalType": "string",
              "name": "authorDesciption",
              "type": "string"
            },
            {
              "internalType": "string",
              "name": "profileImageUrl",
              "type": "string"
            },
            {
              "internalType": "bool",
              "name": "isActive",
              "type": "bool"
            }
          ],
          "internalType": "struct MediumBlog.Author",
          "name": "",
          "type": "tuple"
        }
      ],
      "stateMutability": "view",
      "type": "function"
    },
    {
      "inputs": [],
      "name": "postingFee",
      "outputs": [
        {
          "internalType": "uint256",
          "name": "",
          "type": "uint256"
        }
      ],
      "stateMutability": "view",
      "type": "function"
    },
    {
      "inputs": [
        {
          "internalType": "uint256",
          "name": "",
          "type": "uint256"
        }
      ],
      "name": "posts",
      "outputs": [
        {
          "internalType": "uint256",
          "name": "id",
          "type": "uint256"
        },
        {
          "internalType": "address",
          "name": "creator",
          "type": "address"
        },
        {
          "internalType": "string",
          "name": "title",
          "type": "string"
        },
        {
          "internalType": "string",
          "name": "postOverview",
          "type": "string"
        },
        {
          "internalType": "string",
          "name": "coverImageURI",
          "type": "string"
        },
        {
          "internalType": "uint256",
          "name": "readTime",
          "type": "uint256"
        },
        {
          "internalType": "string",
          "name": "contentURI",
          "type": "string"
        },
        {
          "internalType": "uint256",
          "name": "createdAt",
          "type": "uint256"
        }
      ],
      "stateMutability": "view",
      "type": "function"
    },
    {
      "inputs": [
        {
          "internalType": "string",
          "name": "_username",
          "type": "string"
        },
        {
          "internalType": "string",
          "name": "_authorDesc",
          "type": "string"
        },
        {
          "internalType": "string",
          "name": "_profilePictureUrl",
          "type": "string"
        }
      ],
      "name": "subscribe",
      "outputs": [],
      "stateMutability": "nonpayable",
      "type": "function"
    },
    {
      "inputs": [
        {
          "internalType": "uint256",
          "name": "_postId",
          "type": "uint256"
        }
      ],
      "name": "tipPostCreator",
      "outputs": [],
      "stateMutability": "payable",
      "type": "function"
    },
    {
      "inputs": [
        {
          "internalType": "uint256",
          "name": "_postId",
          "type": "uint256"
        },
        {
          "internalType": "string",
          "name": "_newTitle",
          "type": "string"
        },
        {
          "internalType": "string",
          "name": "_newPostOverview",
          "type": "string"
        },
        {
          "internalType": "string",
          "name": "_newCoverImageURI",
          "type": "string"
        },
        {
          "internalType": "string",
          "name": "_newContentURI",
          "type": "string"
        }
      ],
      "name": "updatePost",
      "outputs": [],
      "stateMutability": "nonpayable",
      "type": "function"
    },
    {
      "inputs": [],
      "name": "withdrawBalance",
      "outputs": [],
      "stateMutability": "nonpayable",
      "type": "function"
    }
  ],
  "bytecode": "0x60806040523480156200001157600080fd5b5060405162002c1c38038062002c1c83398181016040528101906200003791906200009c565b336000806101000a81548173ffffffffffffffffffffffffffffffffffffffff021916908373ffffffffffffffffffffffffffffffffffffffff1602179055508060018190555050620000ec565b6000815190506200009681620000d2565b92915050565b600060208284031215620000af57600080fd5b6000620000bf8482850162000085565b91505092915050565b6000819050919050565b620000dd81620000c8565b8114620000e957600080fd5b50565b612b2080620000fc6000396000f3fe6080604052600436106100c15760003560e01c8063305611001161007f5780636ba6a358116100595780636ba6a35814610240578063ec25508c14610269578063f260d41514610292578063f851a440146102bb576100c1565b806330561100146101d35780635d7bec09146101fe5780635fd8c71014610229576100c1565b8062e90184146100c657806309a71be3146101035780630b1e7f831461011f5780631cfd5c9d146101635780631ebd72ed1461017f57806325ca819f146101a8575b600080fd5b3480156100d257600080fd5b506100ed60048036038101906100e89190611eaf565b6102e6565b6040516100fa91906125a4565b60405180910390f35b61011d60048036038101906101189190611f6f565b61051a565b005b34801561012b57600080fd5b5061014660048036038101906101419190612046565b61079a565b60405161015a98979695949392919061266c565b60405180910390f35b61017d60048036038101906101789190612046565b610a32565b005b34801561018b57600080fd5b506101a660048036038101906101a19190611ed8565b610dd2565b005b3480156101b457600080fd5b506101bd61116f565b6040516101ca91906125c6565b60405180910390f35b3480156101df57600080fd5b506101e8611175565b6040516101f591906124c2565b60405180910390f35b34801561020a57600080fd5b50610213611491565b60405161022091906125c6565b60405180910390f35b34801561023557600080fd5b5061023e611497565b005b34801561024c57600080fd5b5061026760048036038101906102629190612046565b61158e565b005b34801561027557600080fd5b50610290600480360381019061028b919061206f565b611626565b005b34801561029e57600080fd5b506102b960048036038101906102b49190611ed8565b611b4a565b005b3480156102c757600080fd5b506102d0611d25565b6040516102dd91906124a7565b60405180910390f35b6102ee611d49565b600460008373ffffffffffffffffffffffffffffffffffffffff1673ffffffffffffffffffffffffffffffffffffffff1681526020019081526020016000206040518060a0016040529081600082015481526020016001820180546103529061287c565b80601f016020809104026020016040519081016040528092919081815260200182805461037e9061287c565b80156103cb5780601f106103a0576101008083540402835291602001916103cb565b820191906000526020600020905b8154815290600101906020018083116103ae57829003601f168201915b505050505081526020016002820180546103e49061287c565b80601f01602080910402602001604051908101604052809291908181526020018280546104109061287c565b801561045d5780601f106104325761010080835404028352916020019161045d565b820191906000526020600020905b81548152906001019060200180831161044057829003601f168201915b505050505081526020016003820180546104769061287c565b80601f01602080910402602001604051908101604052809291908181526020018280546104a29061287c565b80156104ef5780601f106104c4576101008083540402835291602001916104ef565b820191906000526020600020905b8154815290600101906020018083116104d257829003601f168201915b505050505081526020016004820160009054906101000a900460ff1615151515815250509050919050565b600460003373ffffffffffffffffffffffffffffffffffffffff1673ffffffffffffffffffffffffffffffffffffffff16815260200190815260200160002060040160009054906101000a900460ff166105a9576040517f08c379a00000000000000000000000000000000000000000000000000000000081526004016105a090612544565b60405180910390fd5b60015434146105ed576040517f08c379a00000000000000000000000000000000000000000000000000000000081526004016105e4906124e4565b60405180910390fd5b6000600380549050905060036040518061010001604052808381526020013373ffffffffffffffffffffffffffffffffffffffff1681526020018881526020018781526020018681526020018581526020018481526020014281525090806001815401808255809150506001900390600052602060002090600802016000909190919091506000820151816000015560208201518160010160006101000a81548173ffffffffffffffffffffffffffffffffffffffff021916908373ffffffffffffffffffffffffffffffffffffffff16021790555060408201518160020190805190602001906106df929190611d7a565b5060608201518160030190805190602001906106fc929190611d7a565b506080820151816004019080519060200190610719929190611d7a565b5060a0820151816005015560c0820151816006019080519060200190610740929190611d7a565b5060e0820151816007015550507fae391be4a9242c66d885cb4c515f5bfd00c521f275fa1937b67c54492f0e6199813388888888884260405161078a98979695949392919061266c565b60405180910390a1505050505050565b600381815481106107aa57600080fd5b90600052602060002090600802016000915090508060000154908060010160009054906101000a900473ffffffffffffffffffffffffffffffffffffffff16908060020180546107f99061287c565b80601f01602080910402602001604051908101604052809291908181526020018280546108259061287c565b80156108725780601f1061084757610100808354040283529160200191610872565b820191906000526020600020905b81548152906001019060200180831161085557829003601f168201915b5050505050908060030180546108879061287c565b80601f01602080910402602001604051908101604052809291908181526020018280546108b39061287c565b80156109005780601f106108d557610100808354040283529160200191610900565b820191906000526020600020905b8154815290600101906020018083116108e357829003601f168201915b5050505050908060040180546109159061287c565b80601f01602080910402602001604051908101604052809291908181526020018280546109419061287c565b801561098e5780601f106109635761010080835404028352916020019161098e565b820191906000526020600020905b81548152906001019060200180831161097157829003601f168201915b5050505050908060050154908060060180546109a99061287c565b80601f01602080910402602001604051908101604052809291908181526020018280546109d59061287c565b8015610a225780601f106109f757610100808354040283529160200191610a22565b820191906000526020600020905b815481529060010190602001808311610a0557829003601f168201915b5050505050908060070154905088565b600060038281548110610a6e577f4e487b7100000000000000000000000000000000000000000000000000000000600052603260045260246000fd5b906000526020600020906008020160405180610100016040529081600082015481526020016001820160009054906101000a900473ffffffffffffffffffffffffffffffffffffffff1673ffffffffffffffffffffffffffffffffffffffff1673ffffffffffffffffffffffffffffffffffffffff168152602001600282018054610af89061287c565b80601f0160208091040260200160405190810160405280929190818152602001828054610b249061287c565b8015610b715780601f10610b4657610100808354040283529160200191610b71565b820191906000526020600020905b815481529060010190602001808311610b5457829003601f168201915b50505050508152602001600382018054610b8a9061287c565b80601f0160208091040260200160405190810160405280929190818152602001828054610bb69061287c565b8015610c035780601f10610bd857610100808354040283529160200191610c03565b820191906000526020600020905b815481529060010190602001808311610be657829003601f168201915b50505050508152602001600482018054610c1c9061287c565b80601f0160208091040260200160405190810160405280929190818152602001828054610c489061287c565b8015610c955780601f10610c6a57610100808354040283529160200191610c95565b820191906000526020600020905b815481529060010190602001808311610c7857829003601f168201915b5050505050815260200160058201548152602001600682018054610cb89061287c565b80601f0160208091040260200160405190810160405280929190818152602001828054610ce49061287c565b8015610d315780601f10610d0657610100808354040283529160200191610d31565b820191906000526020600020905b815481529060010190602001808311610d1457829003601f168201915b505050505081526020016007820154815250509050806020015173ffffffffffffffffffffffffffffffffffffffff163373ffffffffffffffffffffffffffffffffffffffff161415610d8357600080fd5b806020015173ffffffffffffffffffffffffffffffffffffffff166108fc349081150290604051600060405180830381858888f19350505050158015610dcd573d6000803e3d6000fd5b505050565b600460003373ffffffffffffffffffffffffffffffffffffffff1673ffffffffffffffffffffffffffffffffffffffff16815260200190815260200160002060040160009054906101000a900460ff16610e61576040517f08c379a0000000000000000000000000000000000000000000000000000000008152600401610e5890612564565b60405180910390fd5b6000600460003373ffffffffffffffffffffffffffffffffffffffff1673ffffffffffffffffffffffffffffffffffffffff1681526020019081526020016000206040518060a001604052908160008201548152602001600182018054610ec79061287c565b80601f0160208091040260200160405190810160405280929190818152602001828054610ef39061287c565b8015610f405780601f10610f1557610100808354040283529160200191610f40565b820191906000526020600020905b815481529060010190602001808311610f2357829003601f168201915b50505050508152602001600282018054610f599061287c565b80601f0160208091040260200160405190810160405280929190818152602001828054610f859061287c565b8015610fd25780601f10610fa757610100808354040283529160200191610fd2565b820191906000526020600020905b815481529060010190602001808311610fb557829003601f168201915b50505050508152602001600382018054610feb9061287c565b80601f01602080910402602001604051908101604052809291908181526020018280546110179061287c565b80156110645780601f1061103957610100808354040283529160200191611064565b820191906000526020600020905b81548152906001019060200180831161104757829003601f168201915b505050505081526020016004820160009054906101000a900460ff161515151581525050905083816020018190525082816040018190525081816060018190525080600460003373ffffffffffffffffffffffffffffffffffffffff1673ffffffffffffffffffffffffffffffffffffffff16815260200190815260200160002060008201518160000155602082015181600101908051906020019061110b929190611d7a565b506040820151816002019080519060200190611128929190611d7a565b506060820151816003019080519060200190611145929190611d7a565b5060808201518160040160006101000a81548160ff02191690831515021790555090505050505050565b60025481565b60606003805480602002602001604051908101604052809291908181526020016000905b82821015611488578382906000526020600020906008020160405180610100016040529081600082015481526020016001820160009054906101000a900473ffffffffffffffffffffffffffffffffffffffff1673ffffffffffffffffffffffffffffffffffffffff1673ffffffffffffffffffffffffffffffffffffffff16815260200160028201805461122d9061287c565b80601f01602080910402602001604051908101604052809291908181526020018280546112599061287c565b80156112a65780601f1061127b576101008083540402835291602001916112a6565b820191906000526020600020905b81548152906001019060200180831161128957829003601f168201915b505050505081526020016003820180546112bf9061287c565b80601f01602080910402602001604051908101604052809291908181526020018280546112eb9061287c565b80156113385780601f1061130d57610100808354040283529160200191611338565b820191906000526020600020905b81548152906001019060200180831161131b57829003601f168201915b505050505081526020016004820180546113519061287c565b80601f016020809104026020016040519081016040528092919081815260200182805461137d9061287c565b80156113ca5780601f1061139f576101008083540402835291602001916113ca565b820191906000526020600020905b8154815290600101906020018083116113ad57829003601f168201915b50505050508152602001600582015481526020016006820180546113ed9061287c565b80601f01602080910402602001604051908101604052809291908181526020018280546114199061287c565b80156114665780601f1061143b57610100808354040283529160200191611466565b820191906000526020600020905b81548152906001019060200180831161144957829003601f168201915b5050505050815260200160078201548152505081526020019060010190611199565b50505050905090565b60015481565b60008054906101000a900473ffffffffffffffffffffffffffffffffffffffff1673ffffffffffffffffffffffffffffffffffffffff163373ffffffffffffffffffffffffffffffffffffffff1614611525576040517f08c379a000000000000000000000000000000000000000000000000000000000815260040161151c90612524565b60405180910390fd5b60008054906101000a900473ffffffffffffffffffffffffffffffffffffffff1673ffffffffffffffffffffffffffffffffffffffff166108fc479081150290604051600060405180830381858888f1935050505015801561158b573d6000803e3d6000fd5b50565b60008054906101000a900473ffffffffffffffffffffffffffffffffffffffff1673ffffffffffffffffffffffffffffffffffffffff163373ffffffffffffffffffffffffffffffffffffffff161461161c576040517f08c379a000000000000000000000000000000000000000000000000000000000815260040161161390612524565b60405180910390fd5b8060018190555050565b600060038681548110611662577f4e487b7100000000000000000000000000000000000000000000000000000000600052603260045260246000fd5b906000526020600020906008020160405180610100016040529081600082015481526020016001820160009054906101000a900473ffffffffffffffffffffffffffffffffffffffff1673ffffffffffffffffffffffffffffffffffffffff1673ffffffffffffffffffffffffffffffffffffffff1681526020016002820180546116ec9061287c565b80601f01602080910402602001604051908101604052809291908181526020018280546117189061287c565b80156117655780601f1061173a57610100808354040283529160200191611765565b820191906000526020600020905b81548152906001019060200180831161174857829003601f168201915b5050505050815260200160038201805461177e9061287c565b80601f01602080910402602001604051908101604052809291908181526020018280546117aa9061287c565b80156117f75780601f106117cc576101008083540402835291602001916117f7565b820191906000526020600020905b8154815290600101906020018083116117da57829003601f168201915b505050505081526020016004820180546118109061287c565b80601f016020809104026020016040519081016040528092919081815260200182805461183c9061287c565b80156118895780601f1061185e57610100808354040283529160200191611889565b820191906000526020600020905b81548152906001019060200180831161186c57829003601f168201915b50505050508152602001600582015481526020016006820180546118ac9061287c565b80601f01602080910402602001604051908101604052809291908181526020018280546118d89061287c565b80156119255780601f106118fa57610100808354040283529160200191611925565b820191906000526020600020905b81548152906001019060200180831161190857829003601f168201915b505050505081526020016007820154815250509050806020015173ffffffffffffffffffffffffffffffffffffffff163373ffffffffffffffffffffffffffffffffffffffff16146119ac576040517f08c379a00000000000000000000000000000000000000000000000000000000081526004016119a390612504565b60405180910390fd5b848160400181905250838160600181905250828160800181905250818160c00181905250428160e00181815250508060038781548110611a15577f4e487b7100000000000000000000000000000000000000000000000000000000600052603260045260246000fd5b90600052602060002090600802016000820151816000015560208201518160010160006101000a81548173ffffffffffffffffffffffffffffffffffffffff021916908373ffffffffffffffffffffffffffffffffffffffff1602179055506040820151816002019080519060200190611a90929190611d7a565b506060820151816003019080519060200190611aad929190611d7a565b506080820151816004019080519060200190611aca929190611d7a565b5060a0820151816005015560c0820151816006019080519060200190611af1929190611d7a565b5060e082015181600701559050507f6ec36d53386fd706ec8b000c79faa8d46af347a4b7a92ebcb1c68e7f03c78ff886338787878742604051611b3a97969594939291906125e1565b60405180910390a1505050505050565b600460003373ffffffffffffffffffffffffffffffffffffffff1673ffffffffffffffffffffffffffffffffffffffff16815260200190815260200160002060040160009054906101000a900460ff1615611bda576040517f08c379a0000000000000000000000000000000000000000000000000000000008152600401611bd190612584565b60405180910390fd5b600060025490506040518060a0016040528082815260200185815260200184815260200183815260200160011515815250600460003373ffffffffffffffffffffffffffffffffffffffff1673ffffffffffffffffffffffffffffffffffffffff168152602001908152602001600020600082015181600001556020820151816001019080519060200190611c70929190611d7a565b506040820151816002019080519060200190611c8d929190611d7a565b506060820151816003019080519060200190611caa929190611d7a565b5060808201518160040160006101000a81548160ff02191690831515021790555090505060026000815480929190611ce1906128df565b91905055507fcc63c6492c6f72340ad3db6f1f48ccd0a3f9ffeda3cc65bc99b9b81a8686f8c28185604051611d17929190612706565b60405180910390a150505050565b60008054906101000a900473ffffffffffffffffffffffffffffffffffffffff1681565b6040518060a00160405280600081526020016060815260200160608152602001606081526020016000151581525090565b828054611d869061287c565b90600052602060002090601f016020900481019282611da85760008555611def565b82601f10611dc157805160ff1916838001178555611def565b82800160010185558215611def579182015b82811115611dee578251825591602001919060010190611dd3565b5b509050611dfc9190611e00565b5090565b5b80821115611e19576000816000905550600101611e01565b5090565b6000611e30611e2b8461275b565b612736565b905082815260208101848484011115611e4857600080fd5b611e5384828561283a565b509392505050565b600081359050611e6a81612abc565b92915050565b600082601f830112611e8157600080fd5b8135611e91848260208601611e1d565b91505092915050565b600081359050611ea981612ad3565b92915050565b600060208284031215611ec157600080fd5b6000611ecf84828501611e5b565b91505092915050565b600080600060608486031215611eed57600080fd5b600084013567ffffffffffffffff811115611f0757600080fd5b611f1386828701611e70565b935050602084013567ffffffffffffffff811115611f3057600080fd5b611f3c86828701611e70565b925050604084013567ffffffffffffffff811115611f5957600080fd5b611f6586828701611e70565b9150509250925092565b600080600080600060a08688031215611f8757600080fd5b600086013567ffffffffffffffff811115611fa157600080fd5b611fad88828901611e70565b955050602086013567ffffffffffffffff811115611fca57600080fd5b611fd688828901611e70565b945050604086013567ffffffffffffffff811115611ff357600080fd5b611fff88828901611e70565b935050606061201088828901611e9a565b925050608086013567ffffffffffffffff81111561202d57600080fd5b61203988828901611e70565b9150509295509295909350565b60006020828403121561205857600080fd5b600061206684828501611e9a565b91505092915050565b600080600080600060a0868803121561208757600080fd5b600061209588828901611e9a565b955050602086013567ffffffffffffffff8111156120b257600080fd5b6120be88828901611e70565b945050604086013567ffffffffffffffff8111156120db57600080fd5b6120e788828901611e70565b935050606086013567ffffffffffffffff81111561210457600080fd5b61211088828901611e70565b925050608086013567ffffffffffffffff81111561212d57600080fd5b61213988828901611e70565b9150509295509295909350565b600061215283836123c4565b905092915050565b612163816127f2565b82525050565b612172816127f2565b82525050565b60006121838261279c565b61218d81856127bf565b93508360208202850161219f8561278c565b8060005b858110156121db57848403895281516121bc8582612146565b94506121c7836127b2565b925060208a019950506001810190506121a3565b50829750879550505050505092915050565b6121f681612804565b82525050565b6000612207826127a7565b61221181856127d0565b9350612221818560208601612849565b61222a816129b5565b840191505092915050565b6000612240826127a7565b61224a81856127e1565b935061225a818560208601612849565b612263816129b5565b840191505092915050565b600061227b601a836127e1565b9150612286826129c6565b602082019050919050565b600061229e6011836127e1565b91506122a9826129ef565b602082019050919050565b60006122c1600f836127e1565b91506122cc82612a18565b602082019050919050565b60006122e46014836127e1565b91506122ef82612a41565b602082019050919050565b6000612307600e836127e1565b915061231282612a6a565b602082019050919050565b600061232a6012836127e1565b915061233582612a93565b602082019050919050565b600060a0830160008301516123586000860182612489565b506020830151848203602086015261237082826121fc565b9150506040830151848203604086015261238a82826121fc565b915050606083015184820360608601526123a482826121fc565b91505060808301516123b960808601826121ed565b508091505092915050565b6000610100830160008301516123dd6000860182612489565b5060208301516123f0602086018261215a565b506040830151848203604086015261240882826121fc565b9150506060830151848203606086015261242282826121fc565b9150506080830151848203608086015261243c82826121fc565b91505060a083015161245160a0860182612489565b5060c083015184820360c086015261246982826121fc565b91505060e083015161247e60e0860182612489565b508091505092915050565b61249281612830565b82525050565b6124a181612830565b82525050565b60006020820190506124bc6000830184612169565b92915050565b600060208201905081810360008301526124dc8184612178565b905092915050565b600060208201905081810360008301526124fd8161226e565b9050919050565b6000602082019050818103600083015261251d81612291565b9050919050565b6000602082019050818103600083015261253d816122b4565b9050919050565b6000602082019050818103600083015261255d816122d7565b9050919050565b6000602082019050818103600083015261257d816122fa565b9050919050565b6000602082019050818103600083015261259d8161231d565b9050919050565b600060208201905081810360008301526125be8184612340565b905092915050565b60006020820190506125db6000830184612498565b92915050565b600060e0820190506125f6600083018a612498565b6126036020830189612169565b81810360408301526126158188612235565b905081810360608301526126298187612235565b9050818103608083015261263d8186612235565b905081810360a08301526126518185612235565b905061266060c0830184612498565b98975050505050505050565b600061010082019050612682600083018b612498565b61268f602083018a612169565b81810360408301526126a18189612235565b905081810360608301526126b58188612235565b905081810360808301526126c98187612235565b90506126d860a0830186612498565b81810360c08301526126ea8185612235565b90506126f960e0830184612498565b9998505050505050505050565b600060408201905061271b6000830185612498565b818103602083015261272d8184612235565b90509392505050565b6000612740612751565b905061274c82826128ae565b919050565b6000604051905090565b600067ffffffffffffffff82111561277657612775612986565b5b61277f826129b5565b9050602081019050919050565b6000819050602082019050919050565b600081519050919050565b600081519050919050565b6000602082019050919050565b600082825260208201905092915050565b600082825260208201905092915050565b600082825260208201905092915050565b60006127fd82612810565b9050919050565b60008115159050919050565b600073ffffffffffffffffffffffffffffffffffffffff82169050919050565b6000819050919050565b82818337600083830152505050565b60005b8381101561286757808201518184015260208101905061284c565b83811115612876576000848401525b50505050565b6000600282049050600182168061289457607f821691505b602082108114156128a8576128a7612957565b5b50919050565b6128b7826129b5565b810181811067ffffffffffffffff821117156128d6576128d5612986565b5b80604052505050565b60006128ea82612830565b91507fffffffffffffffffffffffffffffffffffffffffffffffffffffffffffffffff82141561291d5761291c612928565b5b600182019050919050565b7f4e487b7100000000000000000000000000000000000000000000000000000000600052601160045260246000fd5b7f4e487b7100000000000000000000000000000000000000000000000000000000600052602260045260246000fd5b7f4e487b7100000000000000000000000000000000000000000000000000000000600052604160045260246000fd5b6000601f19601f8301169050919050565b7f6d7573742070617920657861637420706f7374696e6720666565000000000000600082015250565b7f6f6e6c7920706f73742063726561746f72000000000000000000000000000000600082015250565b7f6f6e6c792061646d696e2063616c6c0000000000000000000000000000000000600082015250565b7f4d75737420737562736372696265206669727374000000000000000000000000600082015250565b7f4e6f742073756273637269626564000000000000000000000000000000000000600082015250565b7f416c726561647920737562736372696265640000000000000000000000000000600082015250565b612ac5816127f2565b8114612ad057600080fd5b50565b612adc81612830565b8114612ae757600080fd5b5056fea2646970667358221220110e85e7991d14e4650a3ee3947aa951e5952b848e0ae9705d7dc181b3dcc5a464736f6c63430008040033",
  "linkReferences": {},
  "deployedLinkReferences": {}
}